:020000041000EA
:1000000000B5324B212058609868022188439860DF
:10001000D860186158612E4B002199600221596106
:100020000121F02299502B49196001219960352056
:1000300000F044F80222904214D00621196600F024
:1000400034F8196E01211966002018661A6600F04E
:100050002CF8196E196E196E052000F02FF8012189
:100060000842F9D1002199601B49196000215960AB
:100070001A491B48016001219960EB211966A021F2
:10008000196600F012F800219960164914480160C1
:100090000121996001BC002800D000471248134993
:1000A000086003C880F30888084703B5996A0420EC
:1000B0000142FBD001200142F8D103BD02B5186610
:1000C0001866FFF7F2FF186E186E02BD00000240BE
:1000D000000000180000070000035F00212200005C
:1000E000F4000018222000A00001001008ED00E03C
:1000F00000000000000000000000000074B24E7A12
:1001000000200420F7010010C3010010C5010010F9
:10011000C1010010C1010010C1010010C101001097
:10012000C1010010C1010010C1010010C701001081
:10013000C1010010C1010010C9010010CB01001065
:10014000CD010010CD010010CD010010CD01001037
:10015000CD010010CD010010CD010010CD01001027
:10016000CD010010CD010010CD010010CD01001017
:10017000CD010010CD010010CD010010CD01001007
:10018000CD010010CD010010CD010010CD010010F7
:10019000CD010010CD010010CD010010CD010010E7
:1001A000CD010010CD010010CD010010CD010010D7
:1001B000CD010010CD010010CD010010CD010010C7
:1001C00000BE00BE00BE00BE00BE00BEEFF3058054
:1001D000103800BEF2EB8871C8C90110F0C90110D7
:1001E0003402001090A31AE700201F49086006C8D7
:1001F00081F3088810471D48006800282FD10DA4FE
:100200000ECC002902D000F012F8F9E71849194A7B
:10021000002000E001C19142FCD1174988471749ED
:1002200088471749884700BEFDE701C901C29A42C5
:10023000FBD37047F0C90110C00000200C2700203C
:100240003CF0011000000420000004203CF00110EC
:10025000001004200010042000000000704709482E
:1002600003F06CFF0047000008ED00E0000000D044
:1002700010270020603500206D2E0010DD070010D3
:100280002B2E00105756000006005250ABB360539F
:100290004C90011006005250861C03025C90011025
:1002A000060052505422A29D649001100500525045
:1002B000DE65F4683CF00110F8B5C04610B5064C98
:1002C0002378002B07D1054B002B02D0044800E017
:1002D00000BF0123237010BD18280020000000007B
:1002E000287E0110044B10B5002B03D003490448AD
:1002F00000E000BF10BDC046000000001C28002028
:10030000287E011010B503685B68984710BD000097
:10031000024B0360024B03607047C0462C80011003
:10032000A07F0110024B0360024B03607047C04680
:1003300010800110A07F0110024B0360024B03608C
:100340007047C046F47F0110A07F0110024B03608C
:10035000024B03607047C046D87F0110A07F011098
:10036000024B0360024B03607047C046BC7F011024
:10037000A07F0110002070470020704700207047C8
:10038000002070470020704710B5C068002802D0D8
:10039000342105F069FE10BD10B5C068002802D0F8
:1003A000142105F061FE10BD10B5C068002802D010
:1003B0000C2105F059FE10BD10B50400044B03607C
:1003C000044B0360102105F04FFE200010BDC04615
:1003D000BC7F0110A07F011010B5044B0360044BDB
:1003E0000360102105F040FE10BDC046BC7F011027
:1003F000A07F011010B50400044B0360044B0360A0
:10040000102105F031FE200010BDC046D87F01103C
:10041000A07F011010B5044B0360044B0360102152
:1004200005F022FE10BDC046D87F0110A07F01104C
:1004300010B50400044B0360044B0360102105F069
:1004400013FE200010BDC046F47F0110A07F0110F4
:1004500010B5044B0360044B0360102105F004FE4B
:1004600010BDC046F47F0110A07F011010B504003C
:10047000044B0360044B0360102105F0F5FD2000E0
:1004800010BDC04610800110A07F011010B5044BB4
:100490000360044B0360102105F0E6FD10BDC0466B
:1004A00010800110A07F011010B50400044B036000
:1004B000044B0360102105F0D7FD200010BDC0469D
:1004C0002C800110A07F011010B5044B0360044B79
:1004D0000360102105F0C8FD10BDC0462C8001103E
:1004E000A07F011010B5C468002C0CD060682300F8
:1004F0000C33984203D0E168013105F0B5FD30219D
:10050000200005F0B1FD10BD70B5C468002C57D0B7
:10051000E569002D11D06B68013B6B60002B0CD19D
:100520002B689B6828009847AB68013BAB60002BA9
:1005300003D12B68DB68280098476569002D11D02E
:100540006B68013B6B60002B0CD12B689B6828000B
:100550009847AB68013BAB60002B03D12B68DB688D
:1005600028009847E568002D11D06B68013B6B604F
:10057000002B0CD12B689B6828009847AB68013B87
:10058000AB60002B03D12B68DB68280098476568B7
:10059000002D11D06B68013B6B60002B0CD12B68D8
:1005A0009B6828009847AB68013BAB60002B03D1E8
:1005B0002B68DB68280098473C21200005F054FD9B
:1005C00070BD10B504004368013B4360002B0BD1A4
:1005D00003689B689847A368013BA360002B03D185
:1005E0002368DB682000984710BD0000F0B5D646B0
:1005F0004F464646C0B504000D0001280AD0002C25
:1006000003D1524B9D4200D180E0E0BCBA46B146D6
:10061000A846F0BD4D4B9942F1D1342005F01CFDA8
:10062000070009F027FF4A4B99461F6000239A46AE
:100630004B4652465A60102005F00EFD454B984639
:100640000360012646608660434B0360C7604B46EB
:100650005860142005F000FD070009F025FD3F4B10
:1006600099461F6052465A60102005F0F5FC43463B
:100670000360466086603A4B0360C7604B46586033
:10068000302005F0E9FC070009F022FB354B9946C4
:100690001F6052465A60102005F0DEFC434603609E
:1006A00046608660304B0360C7604B4658600C2044
:1006B00005F0D2FC070009F0FDFD2C4B99461F60A8
:1006C00052465A60102005F0C7FC4346036046605E
:1006D0008660274B0360C7604B4658603C2005F09E
:1006E000BBFC07000AF0B8F9224B99461F6052463E
:1006F0005A60102005F0B0FC4346036046608660F7
:100700001D4B0360C7604B46586078E7194B58682B
:10071000002801D0FFF755FF144B5868002801D07E
:10072000FFF74FFF0F4B5868002801D0FFF749FF34
:100730000A4B5868002801D0FFF743FF044B586864
:10074000002800D161E7FFF73CFF5EE7FFFF0000F4
:1007500070280020A07F0110BC7F011068280020B5
:10076000D87F011034280020F47F01107828002061
:10077000108001104C2E00202C80011010B50D208F
:1007800002F0F4F8192002F0F1F80E2002F0EEF871
:100790000F2002F0EBF8D0231B068022D2015A6210
:1007A000802292045A62802292015A6280210902B8
:1007B00059629A6110BDD0231B068022D2015A6172
:1007C000802212029A617047D0231B068022D20138
:1007D0009A61802212025A6170470000F0B5DE462D
:1007E00057464E464546E0B583B000AF05F01EFEC5
:1007F00008F032FC08F0A0FB834C8449200008F08C
:10080000A3FA0321022002F067F80321032002F07B
:1008100063F8FFF7B3FFFFF7CEFF7D4801F086F8DE
:100820007C480723C3567B6008F0BCFB7A4D7B49AC
:10083000286809F0E5FD7A4B1868210009F09CF959
:10084000784B1868210009F033FC774805F0B2FDB9
:100850002A682C23D35C002B04D0714B1B681B7FB0
:10086000002B03D1714805F0A5FDFEE7704805F0A7
:10087000A1FD704805F09EFD01216F4802F06EFA5F
:10088000FFF7A2FF6D4805F095FD6D4800F0A6FA50
:100890006C4805F08FFD7B689B460023994619E064
:1008A000694B1868694909F01AFF5A4BDB795BB24A
:1008B0007B6055E0644B1868022109F010FF54E09A
:1008C000614D286809F0E9FE010028680AF032F855
:1008D00051E0D546EA464F4C200008F097FBE479FA
:1008E00064B27B68E51AEB17ED185D405B46E41ACD
:1008F000E317E4185C404B4E33689846180009F043
:1009000015FC011C404609F08FFC3368984618001E
:1009100009F040FC011C404609F088FC36683000B4
:1009200009F060FC011C300009F082FC484B18689B
:1009300009F0C8FC3A4E306809F03AF90200C31DCC
:10094000DB08DB006946CB1A9D466946306809F032
:100950004CF902003068694609F080FB042D9FDCE9
:100960002C4B5B795BB2042BA4DC374B186809F085
:10097000B6FD0028A4D002F0ABF9012000F0D6FFAC
:1009800001239C46E144042CA3DD0A2005F0ACFCC5
:10099000234C206809F03AF9206809F043F92068EF
:1009A00009F04CF9206809F055F91E4C206809F04F
:1009B0004DFC206809F03EFC206809F053FC244BF4
:1009C000186809F005FD144B1B68196B214805F0E8
:1009D00021FD104C052161560622A2560723E3563D
:1009E0001D4805F017FD49461C4805F013FD1C483D
:1009F00005F0E0FC1B4805F0DDFC0723E3569B46B1
:100A00000A2005F071FC64E7181D0020801A06001A
:100A100088130000281C002070280020400ECF19E9
:100A20003428002068280020287E0110947E0110C0
:100A3000447E0110587E0110102700006C7E0110CA
:100A4000310B0010807E01104C2E00200004FFFFAF
:100A500078280020A87E0110BC7E0110D87E0110ED
:100A6000E87E0110F87E011070B582B005000E1E00
:100A70000DD0941B01940F2C0ED82868012C14D093
:100A8000002C14D02200310005F0E0FA0FE0914272
:100A9000EFD00B480BF07CFE002201A928000BF0E0
:100AA000C5FF2860019BAB60E7E733780370019ACC
:100AB0006A602B689B1800221A7002B070BDC04695
:100AC000187F011070B582B005000E1E0DD0941B6A
:100AD00001940F2C0ED82868012C14D0002C14D0AF
:100AE0002200310005F0B2FA0FE09142EFD00B483E
:100AF0000BF04EFE002201A928000BF097FF2860A2
:100B0000019BAB60E7E733780370019A6A602B685A
:100B10009B1800221A7002B070BDC046187F0110E9
:100B200010B502490120FFF761FD10BDFFFF000075
:100B300070B59AB0634805F03DFC06E0624B18685A
:100B4000002108F004FD00282BD1604B186809F043
:100B5000BDFC0028F2D15D4B196802A809F05CFDCC
:100B6000594B1D680AAC0894039A029B9C46624448
:100B70000023614608A8FFF7A5FF08A9280009F08F
:100B80008BFC0898A04203D00A9B591C05F06CFA14
:100B9000029804AB9842D1D0049B591C05F064FA2A
:100BA000CCE704AB02934A4900230A0002A8FFF7EE
:100BB0005BFF484805F02EFCD0231B0680229204E0
:100BC0005A6109E00F2319E0029B9D550394029B93
:100BD0009C466444002222703B4B186808F0D8FA07
:100BE000002816D0384B186808F0DAFAC5B2039E10
:100BF000741C04AB029A9A42E4D0049B9C42E3D951
:100C00000123009300230022310002A80BF070FFA3
:100C1000DAE70299304805F0FDFB2B4B186808F025
:100C2000A7FA01002D4805F0F5FB284B1C6810AD14
:100C30000E95039A029B9C466244002361460EA8CF
:100C4000FFF740FF0EA9200009F097FD04000E9861
:100C5000A84203D0109B591C05F006FA002C2CD09A
:100C60001A4B1C6816AD1495029A039B9C4662446D
:100C70000023029914A8FFF725FF14A9200009F00A
:100C800037FC04001498A84203D0169B591C05F0A9
:100C9000EBF90E4B1868210009F021FDD0231B064B
:100CA000802292049A61029804AB984200D14CE7EA
:100CB000049B591C05F0D8F947E7094805F07AFB71
:100CC000ECE7C046447F0110702800204C2E002025
:100CD000249B0110587F01106C7F0110707F011060
:100CE0007C7F011003BD10B5040001F0B3FBA047E9
:100CF00010BDD0231B061B6D9B07FAD5D0231B0606
:100D0000586540BF704700E020BFD0231B061B6D15
:100D1000DB07F9D5D0231B06986D7047F0B587B077
:100D200004000D0017000F2001F0BCF806000021A0
:100D30000F2001F0D3F800230093019301330293B5
:100D4000039704950594002500E00025AB006A4652
:100D50009C58002C12D02000FFF7CBFFFFF7D3FFE9
:100D60008442F2D10135052DF0D931000F2001F078
:100D7000B5F807B0F0BDD0231B069B6DD0231B0632
:100D80001B6DDB07F7D440BFE5E7000010B50B0093
:100D9000910711D103218A439A1811000C39086078
:100DA000100008380360043A064B1360064B9A683B
:100DB0000648FFF7B3FF10BD054B064A6E210648F3
:100DC00002F036F8E70C001000ED00E0E50C001032
:100DD000A4800110C08001105880011010B5064A8F
:100DE000064B9A4205D3110080221201FFF7CEFF75
:100DF00010BD01214942F7E700080420000004204B
:100E000070B504000E00150000F0D6FF01002000B0
:100E100000F006F8A680E580BFF35F8F70BD00008C
:100E2000024B9C46614489000160704740000034D9
:100E300010B5040000F0C0FF01002000FFF7F0FF34
:100E4000FF232371BFF35F8F10BD10B5040000F0C6
:100E5000B3FF01002000FFF7E3FFFF23237100230E
:100E60006371BFF35F8F10BD034B9C4661448900E3
:100E70000160BFF35F8F70474000003410B504007D
:100E8000012000F0A7FF01002000FFF7EDFF10BDDB
:100E900070B505000C00080000F0FCFE09492000B8
:100EA00000F03CFE00F088FF074B9C466044800049
:100EB00068602C75D0231B061B786B75A400034B50
:100EC000E55070BDD51100104000003408330020FB
:100ED0000A4B1A68EFF3108172B61368002BFCD02E
:100EE000BFF35F8F054B1B68BFF35F8F00221A6053
:100EF00081F3108840BF0020002170472435002076
:100F000010B5002922D003681B7B99421ED8174BCD
:100F10009C466144090183689C4661440C684968A9
:100F2000002A19D003681B7B9A4215D883680F48A2
:100F30008446624412019A18106853680200012026
:100F40008B4201D80ED00020C0B210BD084B094A18
:100F50003C21094801F06CFF054B064A3C2106483C
:100F600001F066FFA242EFD8EDE7C046FFFFFF0F9A
:100F700070820110DC8401103082011010B500294C
:100F80001ED0037B99421BD84B005B18033B0468BF
:100F9000A4466344002919D0002A1DD0914221D0D3
:100FA000002A25D0047BA24222D804685000801871
:100FB000033820188170197800291FD11A7010BDCC
:100FC000104B114A6821114801F032FF104B114AB1
:100FD0006F310E4801F02CFF0F4B0E4A70210B4869
:100FE00001F026FF0D4B0B4A7121084801F020FF4C
:100FF000044B054A6821054801F01AFF41701A7038
:10100000DDE7C0469482011048850110B0820110CE
:101010000483011024850110108301101C8301102A
:1010200070B506000D001400002914D0002A14D059
:10103000806873689847002806D022002900300095
:10104000FFF79CFF280007E02A0021003000FFF78F
:1010500095FF200000E0100070BD0800FCE70000D4
:10106000F0B583B00500009201930AAB1C780BAB7E
:101070001F78002C26D003685A7B944207D10123A5
:10108000002B19D1002C3BD1200003B0F0BD002C67
:101090000CD01A7B944209D81A6863001B19033BD1
:1010A000D3189B78002BEBD00123E9E73E4B3F4A56
:1010B00068213F4801F0BCFE3E4B3F4A67213F4854
:1010C00001F0B6FE03689C7B002CDBD012D01A7BAB
:1010D00094420FD862001219033A19688C46624490
:1010E00051789973002900D1D973002393705370FC
:1010F0001370C7E72C4B2D4A68212D4801F098FE4C
:10110000002C3AD02B681B7B9C4236D82C4BE31822
:101110001B01AA6894466344009A1A60019A5A60B7
:10112000089A9A60099ADA602E68002C2BD030D089
:10113000337B9C422DD863001B19033B32689446D5
:10114000634400229A705A701A70717B220030003A
:10115000FFF766FF7073844200D095E7287D009A00
:10116000019B00F023FD061E01D0002F17D00C9B21
:10117000002B00D188E71E7086E7124B124A3C21F3
:101180000E4801F055FE114B114AA521084801F007
:101190004FFE054B054A6821054801F049FE2868C5
:1011A000210001F01DFBE2E7948201104885011047
:1011B000B082011034830110548501103082011077
:1011C000FFFFFF0F70820110DC8401102C820110E0
:1011D00038850110F0B5DE4657464E464546E0B527
:1011E0008BB00990002308938200B54BD658370086
:1011F00052E0B44BB44A3F21B44801F019FEB44B5D
:10120000B44A3C21B44801F013FE002901D1002862
:1012100069D10021404601F0D9FAA04219D12A68CB
:101220006B6806920793AB689846EB689A4643460C
:10123000002B14D0002C18D03B681B7B9C4214D888
:10124000631EFA68D35C08931B02184338610020C0
:1012500015E0A24BA24A8E219F4801F0E9FDA14B67
:101260009F4A92219C4801F0E3FD994B9E4A4121FF
:10127000994801F0DDFD00239A46984600207B68DE
:10128000BFF35F8F00221A6086F310884346002B5D
:1012900032D1002800D10CE100F0FCFB02000B1E53
:1012A000A7DB00200021069007917868EFF31086F5
:1012B00072B601680029FCD0BFF35F8F3968884699
:1012C0004C7B002CD7D09AD0097B8C4297D8874989
:1012D00065182D01B9688C46654428686968801ACC
:1012E0009941002991DD2A686B68099800F05EFC3D
:1012F00000239A469846C2E7089B1B02234399465F
:1013000051461800C04705000E007A68EFF3108BB5
:1013100072B6136859424B41D9B2002BF9D1BFF3D1
:101320005F8F002E1EDB002E46DD3B69002B47D071
:101330004B456DD100F0AEFB02000B1E6EDB521967
:101340007341002B70DB002B72DB00210491013113
:101350000391029451460191414600913800FFF7F4
:101360007FFE4CE03B69002BDDD04B4514D1069A43
:10137000079B521BB341002B14DB002B16DB002113
:10138000049101310391029451460191414600912B
:101390003800FFF765FE32E0554B514AA1214E4817
:1013A00001F046FD01225242524BE6E7454B464AC8
:1013B0003F21464801F03CFD002E01D1002DB4D163
:1013C0003B68002C50D05A7B944237D10121002930
:1013D0004AD1DA7B002A4DD19A7B002A03D1DA7BED
:1013E000002A5AD19C73DC73002C5CD03B681B7BB9
:1013F0009C4258D8FA68013C135D01331355002311
:101400003B617A68BFF35F8F13608BF3108843E70B
:10141000374B334AA421304801F00AFD294B2A4AB0
:101420003F212A4801F004FD01225242314B8AE754
:10143000244B254A3F21254801F0FAFC002C0DD011
:101440001A7B94420AD862001219033A186884463B
:1014500062449278002ABAD00121B8E7264B274A85
:101460006821274801F0E4FC264B274AF62124484E
:1014700001F0DEFC002A0AD0197B8A4207D851000D
:101480008A18033A19688C4662445470A4E71A4BD0
:101490001A4A68211A4801F0CBFC1C4B1A4AFB215E
:1014A000174801F0C5FC0A4B0F4A41210A4801F0D8
:1014B000BFFC0BB0F0BCBB46B246A946A046F0BD8F
:1014C0000833002040810110A88401105C810110C4
:1014D00070820110DC840110308201105C830110E5
:1014E000C08401107483011000850110FFFFFF0FFD
:1014F00080830110FFFFFF7F948201104885011057
:10150000B0820110BC83011014850110E08301102A
:1015100010B50C4B5B68002B04D00A210A48FFF77A
:101520007FFC10BD074C2300084A1021206801F001
:101530005DF8032000F0A2FA03212000FFF7A8FCC9
:10154000EBE7C046301C002024350020010F0010BE
:1015500010B5064B5B68002B01D0044810BD044B4E
:10156000044A5E21044801F063FCC046301C0020A0
:10157000F4830110E884011030820110F0B5DE46DA
:1015800057464E464546E0B58BB0804616001F00D4
:10159000149B9A46159B994616AB1B789B461F23B6
:1015A00002AA9446634400221A702BE0002809D056
:1015B00042461268127B904204D8421E4146C968D6
:1015C0008A5C41E0404B414A4121414801F030FCF6
:1015D00007984CE0361BAF41002F07DB002F11DAD4
:1015E0003C4B3D4A3F213D4801F022FC012676421A
:1015F0003B4FF3E7374B384A3F21384801F018FC9E
:10160000002F4FDB43465A68EFF3108472B613681D
:1016100059424B41D9B20791002BF8D1BFF35F8FEC
:101620001F3302AA94466344049300230393029356
:101630004B4601935346009332003B004046FFF770
:101640000FFD031EB2D1020041464968BFF35F8F10
:1016500000250D6084F31088002B29D01F2302A9D8
:101660008C4663441B78002BB2D112021043002B2E
:1016700020D05B46002B1DD04946D04704000D000A
:1016800003000B431DD00029A4DB00F003FA060081
:101690000F1EAFDB36196F41002FB1DA01267642FB
:1016A0000F4FADE70B4B0C4A3F210C4801F0C0FB3C
:1016B000012040420BB0F0BCBB46B246A946A04652
:1016C000F0BD0798F6E7C046708201100085011052
:1016D0003082011040810110A88401105C8101104A
:1016E000FFFFFF7FF8B504004268EFF3108572B684
:1016F000136858424341D8B2002BF9D1BFF35F8F32
:10170000CBB22268567BB3421BD10120002848D0BF
:10171000206988422BD0090AC9B2002B2ED020683C
:10172000007B83422AD8581EE668305C88422BD062
:1017300000206368BFF35F8F00221A6085F3108872
:10174000F8BD002B0DD0167BB3420AD85E00F61808
:10175000033E1768BC466644B678002ED6D00120FA
:10176000D4E7134B134A6821134801F061FB95211C
:10177000124B134A4900134801F05AFB124B134A0B
:101780004121104801F054FB1900100001F028F825
:101790000028CED132210E4B094AFF31094801F011
:1017A00047FB23698B42C4D100232361C1E7C046B4
:1017B0009482011048850110B08201101884011034
:1017C0009084011030820110708201100085011098
:1017D0003C840110407D7047F0B587B006000F00D3
:1017E000EFF30583002B1FD106246442E517A419EB
:1017F0007D418D4202D803D1844201D900240025C5
:10180000002D14DB0494059500F044F902000B1E32
:1018100013DBA41A9D41002D17DC14D030003900D1
:1018200000F044F907B0F0BD234801F09BFB234BC7
:10183000234A3F21234801F0FBFA204B204A3F2155
:10184000204801F0F5FA002CE8D0FFF781FE0023D4
:10185000029301931C4B0093049A059BFFF78EFEA5
:10186000002818DADAE7002300E00023002BD5D1A6
:10187000164B1A68EFF3108172B61368002BFCD078
:10188000BFF35F8F114B1B68BFF35F8F00221A609D
:1018900081F3108820BF0499059A0D4B5B6A9A4228
:1018A000E3D80B48806A884203D29A42DBD00123F6
:1018B000DCE70123DAE7C0464084011040810110D3
:1018C000A88401105C810110D10E00102435002085
:1018D0000040054070B504000D0000F0DBF8020088
:1018E0000B1E0ADB200029008018594100290ADB61
:1018F00000290CDBFFF770FF70BD084B084A3F2141
:10190000084801F095FA012040420749F0E7034BEF
:10191000034A3F21034801F08BFAC0464081011081
:10192000A88401105C810110FFFFFF7F10B5FA222F
:1019300092000023002104F0C1F9FFF7CBFF10BD96
:1019400070B584B005000C00EFF30583002B1ED1A9
:10195000FFF7FEFD002302930193224B00932A0020
:101960002300FFF70BFE061E23DD20BFFFF7F0FD6F
:101970003100FFF7B7FE1C4B5B6A9C422DD81A4A18
:10198000926AAA422CD29C4225D0012026E0164B16
:101990005B6A994209D8144A926A824207D29942F4
:1019A00001D001201AE0002018E0002016E00120FC
:1019B00014E00D4B5B6A9C4209D80B4A926AAA421A
:1019C00007D29C4201D0012008E0002006E0002060
:1019D00004E0012002E0002000E0002004B070BD1F
:1019E0000120FBE7D10E00100040054070B5EFF379
:1019F00005801038EFF3108C72B61A4B1B68002B61
:101A0000FBD0BFF35F8F01221300834016494B6365
:101A100016490B60164909780C00C440224214D0C4
:101A2000114A546A8200134D5259944206D38200DF
:101A3000114C125999430E4B197007E00A4A031DC5
:101A40009B0099589950002200E00022BFF35F8F5D
:101A5000044B002119608CF31088002A00D09047B5
:101A600070BDC046280100D0004005403C700540D4
:101A70005B35002030350020302D002010B50100EE
:101A8000024A034800F046F910BDC04678850110AF
:101A900055350020044B5B6A034A906A1900536A6B
:101AA0009942F9D17047C04600400540084B5B6A37
:101AB00001E0074B5B6A8B42FBD301E0044B5B6A9E
:101AC0008B4203D1024B9B6A8342F7D37047C046D7
:101AD0000040054070B504000D00FFF7DBFF020079
:101AE0000B0020002900801859418B4202D804D1F4
:101AF000824202D901204042C117002902DBFFF7D0
:101B0000D5FF70BD024B034A3F21034801F090F915
:101B100040810110248601105C81011070B5040021
:101B20000D00EFF3108672B61B4B1B68002BFBD029
:101B3000BFF35F8F002D1CD0200000F0DFF9174BA2
:101B400083420BD01900200000F0F2F9012120009F
:101B500000F0C4F90123A340114A1360A400114B03
:101B6000E550BFF35F8F0C4B00221A6086F310889C
:101B700070BDA2000B4B0021D1500122A2400A49A6
:101B80000B7893430B700549200000F015FB0021F2
:101B9000200000F0A3F9E4E7280100D0ED190010BF
:101BA00038600540302D00205B350020F0B5DE4662
:101BB00000B584B00400150001921E000293FFF7E7
:101BC00069FF03958E4202D84ED185424CD9EFF37E
:101BD000108B72B6274B1B68002BFBD0BFF35F8FB7
:101BE000254A17780125A540EBB23B431370234BE0
:101BF0005D63221D92000199D150A20020490298F4
:101C000050501B6A2B4212D11C4B1B6C2B4208D02C
:101C10000020BFF35F8F174B00221A608BF31088F0
:101C200023E0184B184AC521184801F001F9FFF7C5
:101C300031FF8E4214D802D1039B834210D80E4B41
:101C40001B78BB420ED00D4B1D625D631F2004400C
:101C50000123A3400E4A1360074B1F701E38D8E7BC
:101C60000020D6E70120D4E7012004B080BCBB46A9
:101C7000F0BDC046280100D05B3500200040054083
:101C8000303500209C85011008860110C0850110A8
:101C900080E200E0EFF3108C72B60B4B1B68002B58
:101CA000FBD0BFF35F8F01238340084A13620849CA
:101CB0000A789A430A70BFF35F8F034B00221A60C1
:101CC0008CF310887047C046280100D000400540C2
:101CD0005B350020034B1B6802201840431E9841CF
:101CE000C0B2704700C00640EFF3108072B6034BDD
:101CF0001B68002BFBD0BFF35F8F70472C0100D017
:101D0000BFF35F8F024B00221A6080F31088704788
:101D10002C0100D0F8B506000C001500FFF7E4FF19
:101D2000E308F718F15C07222240012393400B429D
:101D300005D1DBB20B433B70FFF7E2FFF8BD21009A
:101D4000280001F00FF9F0B583B0060001911400EE
:101D50001F00FFF7C9FF00E00134BC420CD8E308C4
:101D6000F518F35C0721214001228A401A42F3D181
:101D7000D2B21A432A7001E001246442FFF7C0FF87
:101D8000002C02DB200003B0F0BD019B002BF9D03A
:101D9000089801F0E7F80000002307E0054A9A18C8
:101DA0009200BFF35F8F0021116001331F2BF5D923
:101DB0007047C04640000034054A1078431CDBB22F
:101DC0001370172B02D9130010221A707047C046E7
:101DD000581C002000B583B00100044B00931F2362
:101DE00018220348FFF7AFFF03B000BD3C86011087
:101DF000482E0020074B9B68103080001950BFF31D
:101E00005F8FBFF35F8F044B0021196082F310884E
:101E10007047C04600ED00E0240100D010B5091A5B
:101E2000081F0A4B9C466144094A914208D8C307DF
:101E300006D440104005400D064B184380B210BD3B
:101E4000054B064AA321064800F0F2FFFC070000FC
:101E5000FE0F000000E0FFFF58860110C48801104B
:101E60008886011010B5091A04394C08090B08D1ED
:101E70004905490D064A11430180064B234343801F
:101E800010BD054B054AAB21054800F0D1FFC04607
:101E900000F0FFFF00F8FFFFCC86011098880110CA
:101EA0008886011001238340034A10681840431EAE
:101EB0009841C0B27047C04600E100E0002904D05C
:101EC000034B1860034B18607047034B1860FBE727
:101ED00080E200E000E100E080E100E010B50123D5
:101EE00083401800FFF7EAFF10BD00000123834084
:101EF000014A13607047C04600E200E0024B9B6855
:101F000010308000C058704700ED00E010B5FFF7BA
:101F1000F5FF002805D0054BC01A2F2803D8012053
:101F200010BD0020FCE70020FAE7C0465C1C002042
:101F300070B504000D00EFF3108672B60C4B1B68F1
:101F4000002BFBD0BFF35F8F2000FFF7D7FF094BBB
:101F5000984201D0A84205D1320029002000FFF7A5
:101F600049FF70BD044B054A8621054800F060FF1B
:101F7000240100D0CD010010DC860110F88801108A
:101F800088860110F0B5DE4657464E464546E0B518
:101F900089B0814601911500EFF3108A72B6744B37
:101FA0001B68002BFBD0BFF35F8F724B0027DF57FE
:101FB000002F40DB7C00E419A4006F48241806229F
:101FC000A2566C4B1A706D4B9A684B4610339B00AF
:101FD000D35898461E001B1A2F2B38D9684B9845AA
:101FE0002FD105AE674B33807B009B46D81980000C
:101FF000614B9846404402306349FFF70FFF708001
:10200000624BB380FF23B371F571019B07935F446B
:10201000BF0047440ECE0EC701231C43A0465246C4
:1020200041464846FFF7E6FE09B0F0BCBB46B24663
:10203000A946A046F0BD564B564AD721564800F057
:10204000F7FE564B534ADE21534800F0F1FEC043E1
:1020500040440C2102F0C6F8002912D101239E430E
:10206000B34633000026DA79AA4211D9062159561F
:1020700000290CDB4A00521892001E003E4B9B18B0
:10208000F1E7474B434AEA21434800F0D1FE1E00E6
:10209000002E3AD005AB434A1A80813A5A80062373
:1020A000F3560293002B17DA3F4805AB9B46988006
:1020B000029A9A71DD71019A0792301D2100FFF793
:1020C000ADFEB080B7717B00DB199B002A4FFF1873
:1020D0005B4607CB07C7A2E77800C0198000264BF4
:1020E000C0180430321DB388D90A1C2907D15B05FA
:1020F0005915023149005118FFF790FED5E72B4BD7
:102100002B4AB121244800F093FE05AE1D4B3380CD
:102110007B000293D8198000174A9046020042447F
:102120000392901C1849FFF779FE7080039A101DE6
:102130005946FFF773FEB0801E4B5A464146521A6D
:10214000524153431B0DB371F571019A0792029BE3
:102150009C466744BF0047440ECE0EC7114B5A46FB
:102160001380813B538001231C43A04657E7C046A0
:10217000240100D0563500205C1C002000ED00E05A
:10218000CD01001000A1FFFF8C1C002001BDFFFF4E
:1021900014870110E0880110888601103C87011027
:1021A000648701100148000001BD0000D8870110BC
:1021B000D0880110AAAA0000F0B5CE46474680B5E7
:1021C00083B006000D00EFF3108872B6564B1B6803
:1021D000002BFBD0BFF35F8F544B9A683400103450
:1021E000A300D758524B9F4207D0AF4200D198E08E
:1021F0000197504BFB1A2F2B09D94246390030006A
:10220000FFF7F8FD03B0C0BCB946B046F0BD3000E2
:10221000FFF748FE814600213000FFF75FFEBFF365
:102220005F8FEFF30581002901D08C4211D101238A
:10223000019C9C430022A368AB4212D00622A25606
:10224000002A0DDB53009B189B002200394CE41838
:10225000F1E73621384B394AFF31394800F0E8FDC3
:102260002200AB4256D106256557002D38DB6B00A6
:102270005B199A002F4B9B189A68A260DA79E27179
:1022800006229A56A2719B795BB2002B0FDA2D4879
:10229000A0806B005B199B00264AD3182A4A11784C
:1022A0009971157049463000FFF718FEA5E7201D0B
:1022B0006B005B199B001F4A9B181A1D9B88D90A4B
:1022C0001C2907D15B055B15023359005118FFF734
:1022D000A5FDDDE71D4B1E4AB121194800F0A8FD00
:1022E000002912D1002A0ED0FF239371194B93803D
:1022F000154A1378A371184B0E49641A644163435D
:102300001B0D1370CEE70A4FF2E7201D1349FFF7AC
:10231000A9FDC7E76A21124B084AFF31084800F0BF
:1023200087FD034F69E7C046240100D000ED00E0BF
:10233000CD0100105C1C0020F0870110B088011056
:102340008886011001BD000056350020D887011095
:10235000D088011001BDFFFFAAAA0000961C002032
:102360002488011070B5012101432E4BCB1A2F2B6D
:1023700028D8EFF30583002B2BD0EFF3108C72B627
:10238000294A1268002AFBD0BFF35F8F274A040056
:10239000244D641B64416243120D54B2244A926876
:1023A0009B00D2588A421BD00022032A32D8530005
:1023B0009B189B001B49CB189B795BB2A3421FD093
:1023C0000132F2E7C7211B4B1B4A49001B4800F0B2
:1023D0002FFD92211A4B184AFF31184800F028FDB2
:1023E000134A92681749D150174B1A7882711C70A2
:1023F000BFF35F8F0C4B00221A608CF3108870BD06
:102400000D005300991889006918FF268E710F4A34
:102410008A80E9E7D1210E4B074A4900074800F0BE
:1024200007FDC0465C1C0020240100D0AAAA0000C1
:1024300000ED00E02C8801107C88011088860110D6
:1024400054880110CD0100105635002001BDFFFF5A
:10245000609901100022044B02E0044902C30132DA
:10246000072AFAD97047C04600E400E080808080E7
:1024700000B583B00100064B0093052300220548F8
:10248000FFF761FC002801DB1F23181A03B000BD11
:10249000608801105C35002010B500291ED0037B38
:1024A00099421BD84B005B18033B0468A446634465
:1024B000002919D0002A1DD0914221D0002A25D010
:1024C000047BA24222D804685000801803382018E8
:1024D0008170197800291FD11A7010BD104B114A54
:1024E0006821114800F0A4FC104B114A6F310E48CE
:1024F00000F09EFC0F4B0E4A70210B4800F098FC38
:102500000D4B0B4A7121084800F092FC044B054A20
:102510006821054800F08CFC41701A70DDE7C04668
:1025200094820110088A0110B08201100483011006
:10253000F4890110108301101C83011070B506008E
:102540000D001400002914D0002A14D0806873688C
:102550009847002806D0220029003000FFF79CFF92
:10256000280007E02A0021003000FFF795FF200037
:1025700000E0100070BD0800FCE7000010B500236B
:10258000437301338373037BC3730123027B9A423A
:1025900014D9002B0CD0027B934209D85A00D218D0
:1025A000033A01688C4662440133DBB25370EDE7B5
:1025B0000B4B0C4A68210C4800F03AFC002A09D069
:1025C000924207D8016853009A18033A8A180023E8
:1025D000537010BD024B034A6821034800F028FCE9
:1025E00094820110088A0110B082011010B50173A5
:1025F00042608360FFF7C2FF10BD000070B50400A9
:10260000081E00D170BD002934D0237B994231D8F7
:102610004B005B18033B2268944663445A78002AB7
:10262000F0D02DD0237B9A422AD853009B18033B2D
:1026300021688C4663445D7800215970002825D0BC
:10264000237B984222D843001B18033B21688C4609
:1026500063440021597001002000FFF76FFF06005E
:1026600029002000FFF7CAFF020031002000FFF719
:1026700065FFC7E7084B094A6821094800F0D8FB05
:10268000054B064A6821064800F0D2FB024B034A7C
:102690006821034800F0CCFB94820110088A0110E5
:1026A000B082011070B505000C00160000292FD073
:1026B00034D0037B994231D84B005B18033B02684E
:1026C000944663445A78002A2ED19A78002A31D150
:1026D0001978FFF793FF0300002E0AD0EA7B002A47
:1026E0002ED1AA7B002A03D1EA7B002A3BD1AC730E
:1026F000EC73002B3DD1002C4FD02B7B9C424CD84F
:102700002B6861000C19033C1C190023637070BD19
:10271000254B264A3821264800F08AFB254B264ABD
:102720006821264800F084FB254B204A3A212048A6
:1027300000F07EFB234B1D4A3B211D4800F078FB37
:10274000002A0AD0297B8A4207D851008A18033A06
:1027500029688C4662445470C3E7164B164A6821B8
:10276000164800F065FB184B104A4221104800F053
:102770005FFB002B0BD02A7B934208D843001B1829
:10278000033B2A689446634400229A70B3E7094BDE
:10279000094A6821094800F04BFB064B064A6821AC
:1027A000064800F045FBC04614890110E08901107D
:1027B0001C89011094820110088A0110B082011056
:1027C0005C89011084890110E083011070B5040058
:1027D0000A00457B2900FFF765FF6073280070BD84
:1027E00070B50400002967D0437B8B420ED00029CE
:1027F00011D0037B99420ED84B005B18033B026853
:10280000D0188378002B0CD1002056E00121FFF76F
:10281000DDFF012051E0294B294A6821294800F0B9
:1028200007FB002B20D0227B93421DD85A00D318DF
:10283000033B2268D2182568EB5C8B421AD0002B30
:102840001BD0227B934218D85A00D318033B22682E
:10285000D21853788B4216D0002BF0D11A4B1B4A5A
:102860006B211B4800F0E4FA144B154A6821154807
:1028700000F0DEFA4378137007E0104B104A68212D
:10288000104800F0D5FA43785370002383704370EA
:1028900001222000FFF706FF0200617B814205D084
:1028A0002000FFF74BFE6073012006E0094B074A4A
:1028B0007121074800F0BCFA002070BD948201101D
:1028C000088A0110B082011060990110C8890110B6
:1028D0001C890110A889011010B58300084A94468C
:1028E00063441C6840226240C0241440802252018C
:1028F00013431C60C000034B9C466044416010BD04
:1029000004C001400040014080000B4B9C466044E5
:1029100000290DD00823002A0CD00422134302689A
:1029200053400C2213408022520110430360704731
:102930000023F0E70022F1E704C00140002909D09C
:102940008000094B9C46604480239B011843402330
:10295000036070478000044B9C466044C0239B0189
:10296000184340230360F4E704C0014010B501237D
:102970008340D0221206936293610521FFF7ACFFDA
:1029800010BD0000F8B5DE4657464E464546E0B558
:1029900005000F0092460A9A93424ED31A0E9146B2
:1029A0001E020A9A00233000494601F059FC804675
:1029B0006C006419A4002F4B9C46644463688342F6
:1029C00000D260602B1FDBB29B46012B3BD9C0239A
:1029D0009B012343802212011A60AB00264A9958BA
:1029E000002905D0506901F0FDFB01300138FDD10F
:1029F00053465A0123685A40E0231A4080235B0162
:102A000023431A605A46012A28D980239B01234375
:102A1000802212011A604346636042460023300060
:102A2000494601F01DFCAD00134B58510120F0BC8C
:102A3000BB46B246A946A046F8BD104B104A2D2110
:102A4000104800F0F5F9012FC1D1C0239B012343A9
:102A500003221A60A368DB07FCD5C9E72168794027
:102A600003220A401A60A2680123BB401342FAD035
:102A7000CBE7C04600800040542E0020148A01108D
:102A8000748A0110288A011030B583B00C2000F040
:102A900017F9FFF71FF900280DD0002304E0990073
:102AA0002D4A2E4888500133092BF8D92A4B2C4A3D
:102AB0005A6203B030BD2B4B00229A6700F07EF9BA
:102AC000294B01221A60274B5B6C012BFBD1274B52
:102AD00003221A60234B9B6B012BFBD10133009324
:102AE0000433234A0121234800F054F805230093BE
:102AF000214A0121214800F04DF8214B009300228A
:102B000002210420FFF73EFF1E4D00952B000022FE
:102B100001210520FFF736FF104C0094230000220E
:102B200000210720FFF72EFF009423000022002140
:102B30000820FFF727FF0A4B009323000022002103
:102B40000920FFF71FFF00952B000022002106201F
:102B5000FFF718FFADE7C046542E0020006CDC02E2
:102B60001BB70000008000403CB0004030B0004087
:102B7000002F685900800240008C864700C0024048
:102B8000001BB700405973078000014BC0587047C5
:102B9000542E0020F0B5C64600B504000D00170005
:102BA00098460C2001F01EFB0600394BFA18394BF1
:102BB0009A4241D843011B1A9901C91AC900091840
:102BC0008901380001F00EFB0200103A98235B00E7
:102BD0009A4237D84346013B062B39D8069B013B26
:102BE000062B35D83F09B74238D343461E04069B0F
:102BF0001A0316432368002B36DB274B9C4244D034
:102C000080225201254B1A60254B1A60254B9B6888
:102C100011009943FAD12560A060231DC0229201C2
:102C20001A43212313602368002BFCDAE660082393
:102C3000136080BCB846F0BD1B4B1C4A11211C48D8
:102C400000F0F6F81B4B194A1921194800F0F0F86A
:102C5000194B164A1C21164800F0EAF8174B134A84
:102C60002321134800F0E4F822683F231340AB42CD
:102C7000C3D1A3681B051B0D8342BED1E368EE22BE
:102C8000D2021340B342B8D1D3E780229201B9E710
:102C900080E84BD380F8A93200C0024000E0004039
:102CA00000F0004000C00040848A0110AC8B01108D
:102CB000E48A0110288B0110448B0110908B0110C5
:102CC00080239B000343014AD36270470080054084
:102CD000024B1A68024B5A607047C046F832002017
:102CE0000080054010B50200164B8020C00518601A
:102CF000154B1648186000290AD0154BE021C9046D
:102D00001960002A09D1124B802212061A6010BDE8
:102D10000C4BE021C9041960F3E753019B1A98009A
:102D2000801800010B4B186080235B04984202D38B
:102D3000084B094A1A60FFF7CBFF054B8022D205EA
:102D40001A60E4E700B0054008200140FCFF0100E4
:102D500000A00540F8320020FFFFFF0010B5034B34
:102D6000034ADA61FFF7BEFF10BDC0460080054090
:102D70002131B76A10B5030010000C4A8024E40525
:102D80001460002B0DD001221343094A094CD46171
:102D9000094C5C401462516293620021FFF7A2FF6C
:102DA00010BD034B0022DA61F7E7C04600B00540D2
:102DB00000800540D3C007B02D3FF84F064BAA2234
:102DC00012011A602F22DA60044B054A1A60024B86
:102DD0005B68002BFBDA7047004002400060024055
:102DE00000B0FA0000BEFDE703000A4A1268002A9C
:102DF00008D0084A1068C318074A9A4206D3054A01
:102E000013607047034A05491160F2E70120404210
:102E1000F7E7C046F42E00200000042060350020B3
:102E20000020704701204042704710B5FFF7DAFFDD
:102E300010B582B00C001900002A0CD0084B002AF3
:102E40000BD00192009323000200064803F0E2FA3F
:102E50000120FFF7C7FF044BF1E7034AF1E7C04643
:102E6000B88B0110C88B0110249B011070B52B4B3F
:102E70002B4A1A602B4B2C4A1A602C4B9A682A4B0F
:102E80009343FAD12A4C01E008CC9847294B9C4245
:102E9000FAD3FFF7F9FD234B274A1A60234B9B68AF
:102EA000DB43DB01FAD1254B40229A675A671A6748
:102EB000DA66234C09E0234B234A86212348FFF797
:102EC000B7FF2000FDF7B4FF0834214B9C4209D224
:102ED0002368002BF5D0012BEDD12000FDF7B5FFC5
:102EE0000834F2E71B4CA1681B4DC022280003F0F8
:102EF000ADF8A560EFF30583002B00D000BEFEF710
:102F00004BFFFFF7A7FAFEF703FB144C01E008CCD8
:102F10009847134B9C42FAD370BDC04600E0004076
:102F2000BFCDFBFE00F00040FE7F3C0000C0004033
:102F3000E8260020F8260020FFFFFF0100F00140F6
:102F4000D8260020F88B0110708C0110188C01100D
:102F5000E826002000ED00E000000020F826002018
:102F60000C2700200FB400B583B0084803F022FA04
:102F7000049B002B07D005A90191180003F02AFA41
:102F8000034803F017FA0120FFF72CFF608C0110B3
:102F9000089B01109A4200D288547047704710B5C0
:102FA000002802D00B684968984710BD0100002036
:102FB00007E083001B185B00501C08601078C018E5
:102FC00030380A681378303BDBB2092BF1D97047EF
:102FD000F0B5DE4657464E464546E0B583B09346CB
:102FE0001F000C9B9A460D9C0E9B99460F9B9B07BE
:102FF00003D0B8460F00060022E00192A34688469F
:103000004E46B9460700B44207D2551C4B464146CE
:103010002020B84701342A00F5E73D004F465C46C2
:10302000019B9B46B1464646B84637002E0007E056
:10303000013C551C5346185D43463900B0472A00F1
:10304000002CF5D135003E0047460F9B9B0707D467
:10305000100003B0F0BCBB46B246A946A046F0BD86
:10306000B0464E46B9462F005D46531BB342EFD2E1
:10307000541C4B4641462020B8472200F5E7F0B5E6
:10308000CE46474680B585B0944698460C9D0D9C2B
:103090000EAB1B789946109A119B129EB7071CD451
:1030A000002B0CD0F7070AD54F46002F02D10C3762
:1030B000374204D0013B02E030272F5501349442BF
:1030C00001D21F2CF8D9F70707D59C4205D21F2C37
:1030D00003D830272F550134F5E7F70615D57705C6
:1030E00005D4002C03D0944224D09C4222D00F9AC5
:1030F000102A2BD00F9A102A30D00F9A022A35D0DE
:103100001F2C02D830222A5501341F2C05D84A46DC
:10311000002A31D02D222A550134039602930194BE
:10312000009543466246FFF753FF05B0C0BCB94661
:10313000B046F0BD621E012C06D00F9F102F01D0AB
:103140001400D4E7023CD2E71400D0E7B206D1D491
:103150001F2CCFD878222A550134D1E7B206CCD51E
:103160001F2CCAD858222A550134C9E71F2CC7D8AA
:1031700060322A550134C3E7720703D52B222A5542
:103180000134CAE73207C8D520222A550134C4E7E2
:10319000F0B5DE4657464E464546E0B593B081460B
:1031A0008A46089209931CAB10CB1B789B461E9D48
:1031B000219B9846002C03D1102342469A43904607
:1031C0008023DB0046461E4042461A4212D0002CA5
:1031D00022D000260EE03033D9B2771C0AAB9955C5
:1031E0002900200000F0FEFFAC4216D31F2F14D898
:1031F0003E0004002900200000F0F4FFCBB2092BB0
:10320000E9D94246920605D54121C918C9B20A3901
:10321000C9B2E2E76121F8E7270043460693209B05
:1032200005931F9B049303955B46029301970AAB9A
:103230000093099B089A51464846FFF720FF13B0B8
:10324000F0BCBB46B246A946A046F0BDF0B5DE468E
:1032500057464E464546E0B595B0089009910A920A
:103260000B931E9E1F9C20AB1B789B46229B99466E
:10327000239D269B9A463300234303D110335246A5
:103280009A4392468023DB0057461F4052461A421B
:1032900019D0330023432DD0002714E03033DAB2A5
:1032A0007B1C98460CABDA554A462B0030002100B7
:1032B00000F0D6FFA5421FD819D043461F2B1BD8BC
:1032C000474606000C004A462B003000210000F063
:1032D000C7FFD3B2092BE1D95246920605D5412248
:1032E000D218D2B20A3AD2B2DAE76122F8E7B1458F
:1032F000E3D901E00023984653460693259B0593A6
:10330000249B04934B4603935B46029343460193ED
:103310000CAB00930B9B0A9A09990898FFF7AFFE34
:1033200015B0F0BCBB46B246A946A046F0BD0000B1
:10333000F0B5DE4657464E464546E0B591B0834669
:103340008A460C9298461A9C08941B9D0995220067
:103350002B002000290001F016FA002800D0E5E03B
:1033600001225242D74B2000290001F007FA002821
:1033700000D0DBE001225242D34B2000290001F0B3
:10338000E7F9002800D0D1E000220023089E300099
:10339000099D290001F0DCF9002800D0DDE0089843
:1033A0000999069007918023DB001E9A1A400D921E
:1033B0001E9A1A4201D106231C930698079904000D
:1033C0000D000A000600024300D1D1E0080D4005BF
:1033D000400DBE4CA44660440A03120BBC4B134381
:1033E0001F0001F0E3F9BB4ABB4B01F066F9BB4A91
:1033F000BB4B01F03BF904000D000022B94B30003B
:10340000390001F02AF9B84AB84B01F056F9020028
:103410000B002000290001F029F901F0DFF98146B5
:1034200001F0C4F904000D00B14AB24B01F045F9B6
:103430000022B14B01F01AF901F0D0F90600AF4AB1
:10344000AF4B2000290001F038F904000D003000D6
:1034500001F0ACF9AB4AAC4B01F02FF902000B00C4
:103460002000290001F0F9F804000D0002000B0013
:1034700001F023F90A900B91A44BF31800261F05C5
:1034800022002B002000290001F0F0F80E900F918F
:1034900022002B0000208021C90501F0DEF8040085
:1034A0000D0000229A4B0A980B9901F0E8F80022CF
:1034B000984B01F0DBF802000B000A980B9901F021
:1034C000DEF80022944B01F0D1F802000B000A98BC
:1034D0000B9901F0D4F802000B002000290001F044
:1034E000C5F802000B000E980F9901F0C8F80022F1
:1034F000774B01F0BBF832003B0001F0DEF806002C
:103500000F0004000D00069A079B01F037F9002810
:1035100030D001235B429C46E14400227D4B3000C9
:10352000390001F0ACF804000D0023E01E9B049369
:103530001D9B03931C9B0293089A099B0092019385
:1035400043460C9A5146584600F0FCF811B0F0BCC6
:10355000BB46B246A946A046F0BD00230024069310
:103560000794069680231B069C46654407951AE738
:10357000002399464B466333C62B1ED804261E9B58
:103580001B0526D52B0023430FD0644A644B0698B5
:10359000079901F0EBF8002879D00022614B0698DA
:1035A000079901F0D5F8002871D01C9B4B4506DD2A
:1035B0004A46981A431E1C9303E00526DFE70023C2
:1035C0001C938023DB001E9A1A431E9200260023C0
:1035D00099461D9B9E4264D29F1B02231E9A1A404D
:1035E0000A921E9A134202D0002E00D000274B46AA
:1035F000002B07D022002B000698079901F03FF816
:1036000006900791002200230898099901F0A0F87C
:10361000002848D1444B1E9A1340049303971C9BE7
:103620000293069B079C0093019443460C9A5146D3
:10363000584600F087F8002E00D187E71E9B9B06B6
:103640003DD54525441C4346020051462800D84735
:103650004B46DA179B18534005220592013E04960B
:10366000002203920A3202924A46D00F0190009340
:103670004346220051465846FFF78AFD0A9B002B1D
:1036800000D163E702005F460C9E1D9D54E01C9B29
:10369000002B9ED00D9B002B9BD01C9B013B1C93B1
:1036A00097E7002799E7069C079D220029008020C4
:1036B0000006844661440B0006920793AAE765253D
:1036C000C0E7C046FFFFEF7FFFFFEFFF01FCFFFFFA
:1036D0000000F03FFB799F501344D33FB3C8608B89
:1036E000288AC63F0000F83F61436F63A787D23F37
:1036F00071A379094F930A400000E03F1655B5BB0E
:10370000B16B0240EF39FAFE422EE63FFF030000A4
:1037100000002C4000002440000018402D431CEB0A
:10372000E2361A3F80842E41FFF7FFFF541C4346C8
:1037300051462020B8472200931BAB42F6D310001D
:1037400004E7C046F0B5DE4657464E464546E0B56E
:1037500095B00690079193469946209F1E9A1F9B0D
:103760001000190001F00FF8002831D10122524257
:10377000BF4B1E981F9900F0EBFF002837D10122A4
:103780005242BC4B1E981F9900F0F8FF00283DD113
:103790000022B94B1E981F9900F0F0FF002850D16D
:1037A0000022B64B1E981F9900F0D2FF002848D186
:1037B000002200231E981F9900F0CAFF002850D154
:1037C00000239846229B5B0500D4B6E0002458E015
:1037D000229B0393219B029303230193A84B009305
:1037E0004B465A4607990698FFF7F2FB0EE1229BDB
:1037F0000393219B029304230193A24B00934B4616
:103800005A4607990698FFF7E3FBFFE00423229A44
:103810001A4022990B4210D09B4B002A0FD0042251
:103820002299039121990291019200934B465A46A5
:1038300007990698FFF7CCFBE8E0944BEDE70322ED
:10384000EEE7229B0493219B039302971E9B1F9CF0
:10385000009301944B465A4607990698FFF768FD76
:10386000D4E01E9A1F9B0020002100F0F6FE1E905F
:103870001F9101239846A5E70CAB30221A55013F52
:1038800001341F2C01D8092FF6D81E981F9900F07B
:10389000A5FF050000F08AFF02000B001E981F998B
:1038A00000F0DBFEFA007A4B9B181A685B680A92FC
:1038B0000B9300F002FF0890099100F0B3FF06009F
:1038C00000F070FF02000B000898099900F0C5FE97
:1038D0000890099100226F4B00F050FF00282ED075
:1038E0000136300000F05EFF02000B000A980B99D1
:1038F00000F034FF002801D001350026002F2CD124
:10390000280000F053FF02000B001E981F9900F0E2
:10391000A4FE06000F0000225E4B00F019FF0028F5
:1039200046D100225B4B3000390000F027FF002811
:103930003ED1EB073CD501353AE0062746E70022A9
:10394000544B0898099900F003FF0028D6D1002EA7
:1039500001D0F307D2D50136D0E7AA461F2C11D8E3
:10396000013F0A21300000F03DFC651C30310CABFA
:1039700019550A21300000F035FC092E0ED9060039
:103980002C00EBE755461F2C0CD87B1E002F09D0CE
:103990000CAA302111551F000134F4E72B005546C5
:1039A0001C00F0E71F2C03D80CAB2E221A55013453
:1039B0001F2C10D80A21280000F0ECFB661C3031C7
:1039C0000CAB19550A21280000F0E4FB051E01D0BC
:1039D0003400EDE734000323229A1340012B1CD05E
:1039E0001F2C06D84346002B32D00CAB2D221A5583
:1039F0000134229B0393219B029301940CAB00930F
:103A00004B465A4607990698FFF7E2FA15B0F0BC04
:103A1000BB46B246A946A046F0BD219B002B13D061
:103A20004346002B02D10C3313420FD0219B013BA4
:103A30002193190003E00CAB30221A5501348C425B
:103A4000CED21F2CF7D9CBE72199F8E72199F6E7D9
:103A5000229B5B0704D50CAB2B221A550134C8E717
:103A6000229B1B07C5D50CAB20221A550134C0E799
:103A7000FFFFEFFFFFFFEF7F65CDCD4165CDCDC1EE
:103A80008C8C0110908C0110848C0110808C0110A2
:103A9000788E01100000E03FF0B5DE4657464E46F6
:103AA0004546E0B593B082468B4690461193002977
:103AB00000D1EBE200275546119B1878002800D171
:103AC000E7E2252809D07C1C43463A005946A8471E
:103AD000119B013311932700EEE70133119300246A
:103AE000119A11780B00203BD8B2102803D883001C
:103AF000D048C3589F460B00303BDBB2092B2CD972
:103B00002A292FD000230A93119B1A782E2A39D004
:103B100000239A46119A1378683BD9B2122976D8B5
:103B20008B00C549CB589F4601231C43013211929B
:103B3000D6E702231C4301321192D1E704231C4330
:103B400001321192CCE708231C4301321192C7E7DE
:103B500010231C4301321192C2E711A8FFF726FA85
:103B60000A90D1E71C9B1A1D1C921868002804DBE0
:103B70000A90119B01331193C6E702231C43434271
:103B80000A93F6E78022D20014435A1C11925A7805
:103B90001300303BDBB2092B04D92A2A07D00023BB
:103BA0009A46B7E711A8FFF701FA8246B2E71C9BD5
:103BB0001A1D1C921868002804DB8246119B0133F1
:103BC0001193A7E70020F8E780235B002343511CF3
:103BD000119152786C2A01D01C0018E0C0239B0080
:103BE0001C430131119112E080232343511C119198
:103BF0005278682A01D01C0009E0C0231C4301311F
:103C0000119104E080235B001C4301321192119B4F
:103C100018780300253BDAB2532A00D92CE293002E
:103C2000864AD3589F4680239B001C430132119241
:103C3000EDE780235B001C4301321192E7E778280F
:103C400009D0582838D06F2838D0622838D01023AF
:103C50009C430A2600E01026582833D0692803D058
:103C6000642801D00C229443630501D501229443BA
:103C700069282AD0642828D0A30500D59FE0E30551
:103C800000D5B8E0630600D4CAE01C9A111D1C914F
:103C90001168FF220A4005940A9B0493534603933C
:103CA000029600230193009243463A0059462800A9
:103CB000FFF76EFA070027E01026CDE70826CBE7CE
:103CC0000226C9E720221443C8E7A30520D4E30550
:103CD00050D4630666D51C9A111D1C911168FF22F1
:103CE0000A40D317D118594005940A9B04935346B0
:103CF00003930296D20F0192009143463A0059462F
:103D00002800FFF745FA0700119B01331193D3E612
:103D10001C9BDA1D07218A43110008311C91116890
:103D200053689C46DB170C930D930C9A0D9B100067
:103D300048400E90624653400F930E980F990C9A8C
:103D40000D9B801A99410E900F9108940A9B07933E
:103D5000534606930496002305936346DA0F0292B6
:103D60000090019143463A0059462800FFF76EFA49
:103D70000700C9E71C9A111D1C911268D317D118AE
:103D8000594005940A9B0493534603930296D20F1D
:103D90000192009143463A0059462800FFF7F8F98E
:103DA0000700B1E7230605D51C9A111D1C910023BD
:103DB000D25E96E71C9A111D1C91126891E71C9B1C
:103DC000DA1D07218A43110008311C9108940A9BCF
:103DD00007935346069304960023059302931368B2
:103DE00054680093019443463A0059462800FFF76F
:103DF0002DFA070088E71C9A111D1C9105940A9B57
:103E0000049353460393029600230193136800938F
:103E100043463A0059462800FFF7BAF9070073E70E
:103E200023060DD51C9A111D1C9112681204120C48
:103E300031E7C046988C0110DC8C0110288D0110F0
:103E40001C9A111D1C91126825E746281AD01C9B4C
:103E50000733072293431A0008321C9204940A9AEB
:103E60000392524602925C681B6800930194434699
:103E70003A0059462800FFF765FC0700119B013303
:103E8000119319E620231C43E1E7672801D0472856
:103E900002D180231B011C43452801D0472801D1B2
:103EA00020231C431C9B0733072293431A0008322C
:103EB0001C9204940A9A0392524602925C681B6810
:103EC0000093019443463A0059462800FFF730FA20
:103ED0000700119B01331193EEE502231A002240E3
:103EE000924623421FD001241C9B1A1D1C927A1C4F
:103EF0009146187843463A005946A8475346002B46
:103F000016D1119B013311934F46D5E5561C4346FC
:103F100059462020B847230032005C1C9D42F5D84A
:103F20003D001700E0E701233A002F000A9DF4E767
:103F30004A46A9460A9D06E0571C4346594620209A
:103F4000C84734003A00661CA542F5D84D46914654
:103F5000D7E71C9B1A1D1C921B6899465346002BE1
:103F600000D1013B4E4601E0013613003278002AB1
:103F700002D05A1E002BF7D14B46F21A1092802322
:103F8000DB0026001E401C4203D0524501D9534697
:103F9000109302231A0022400B92234205D03A00CC
:103FA00037004C46A946554620E03A00109B5F4634
:103FB000B3462E0006E0551C434639002020B0478A
:103FC00023002A005C1C0A999942F4D835005E4609
:103FD000BB46109437004C46A946554606E01D00E6
:103FE0000134561C43465946C84732002078002801
:103FF00004D0002FF4D06B1E002DF0D117004D46D9
:104000000B9B002B03D1119B0133119354E50A9FA5
:10401000109B06E0561C434659462020A847230023
:1040200032005C1C9F42F5D81700ECE721231C43AB
:104030001C9B1A1D1C921B68009305940823049373
:1040400053460393102302930023019343463A00FF
:1040500059462800FFF79CF80700119B0133119384
:104060002AE57C1C43463A0059462520A847119B67
:104070000133119327001FE57C1C43463A00594643
:10408000A847119B01331193270015E50A4B9A4667
:1040900010E5AA46474502D343465A1E00E03A00BF
:1040A000434659460020D047380013B0F0BCBB4609
:1040B000B246A946A046F0BD9D2F00100EB410B523
:1040C00085B0010007AC08CC039401220094524251
:1040D0000348FFF7E1FC05B010BC08BC03B018476B
:1040E000952F00100CB410B584B00A0006AC08CCB3
:1040F0000394009401000448FFF7CEFC04B010BC08
:1041000008BC02B01847C046952F001000B585B016
:10411000029003910121009313004A4202A9024830
:10412000FFF7BAFC05B000BD9F2F00100148042125
:10413000014B1847B01C00205D41001010B5010074
:1041400018231B8814221088984710BD10B5010051
:1041500018231B8816221088984710BDF0B5C64654
:1041600000B507000E0000250123984600E0013548
:10417000B5420AD2AC003C192068FFF7DFFF20608F
:104180000028F4D100239846F1E7404680BCB846A9
:10419000F0BD0000124A936F9B0815D29066D1665D
:1041A000002905D0FFE7FFE7FFE7516F106F704769
:1041B00004B580210906C2175140002800D0C84329
:1041C00013F082FD002104BDF0B5146E556E576FDB
:1041D000166FFFF7E3FF1466556657671667F0BD65
:1041E000000000D0114A936F9B0813D210665166ED
:1041F000002905D0FFE7FFE7FFE7516F106F704719
:1042000004B5002801D00020C04313F05DFD00215B
:1042100004BDC046F0B5146E556E576F166FFFF7AC
:10422000E5FF1466556657671667F0BD000000D0BD
:1042300094464A4A926F9208624601D228E0C046EC
:10424000F0B5464E346E756E776F366F00F020F81D
:104250009446424A14665566576716676246F0BD33
:1042600094463E4A926F9208624601D254E0C0469C
:10427000F0B53A4E346E756E776F366F00F04CF8CD
:104280009446364A14665566576716676246F0BD0F
:10429000002B24DB11D000293EDA00B5C94340428F
:1042A00000D1013100F038F8C943404200D101315A
:1042B000DB43524200D1013300BD002AEBD100287C
:1042C00001D1002905D00020C90FC90701D1C04381
:1042D000410800B513F0D0FC0022002300BD00B55A
:1042E00000290ADBDB43524200D1013300F014F80D
:1042F000C943404200D1013100BDC943404200D111
:104300000131DB43524200D1013300F005F8DB43B9
:10431000524200D1013300BD002923D1002B18D116
:10432000002A0CD0BC460D4F38667A660021002367
:10433000FFE7FFE7FFE77A6F386F674670470028AF
:1043400001D00748010000B513F096FC00220023BD
:1043500000BD02000B00002000217047000000D0CB
:10436000FFFFFFFF002B00D0BFE0130C28D1002A75
:10437000E7D080B4114F39667A66FFE7FFE730B4C3
:10438000040C7B6F396F1B0423433B667A66FFE79F
:10439000FFE7FFE7C04684B27B6F3D6F1B042343FA
:1043A0003B667A66FFE7FFE7C04600232C042D0C2E
:1043B0007A6F386F00196941B0BC7047000000D0B7
:1043C000F0B594460025140E01D112020835140FE1
:1043D00001D112010435940F01D192000235D40F9E
:1043E00001D152000135D40B0134254F7C66254C98
:1043F0003C660E0C93B2FFE7FFE7FFE73C6F6643B6
:10440000360C7703BE467343DF0B5B04C01AB94119
:10441000130C7343DB18C91ACE086643360CB64436
:1044200093B273431F0F1B01C01AB941130C73439E
:104430001F0B1B05C01AB941860D8F023E43664310
:10444000360C092D24DB520A7243801A7703460A80
:104450006643360C16235B1BDE40DF40BF19644603
:104460006643821B7046043506330100D940A840DC
:10447000C01900D30131A24206D20023F0BD0000D2
:10448000000000D0FFFFFFFF121B0130F3D3F1E764
:1044900009277F1BFE406446A2B27243801A00D2F5
:1044A0000139220C7243130C1204821A99410B0039
:1044B0007046043513370100F940A840801900D335
:1044C0000131002B02D1A2420AD2F0BD013000D34B
:1044D0000131121BFAD2013BF8D1A24200D2F0BD49
:1044E000013000D30131121BF7E7F0B51C0C00D0EE
:1044F00080E00CB400251C0A04D11B02160E3343C5
:10450000120208351C0B04D11B01160F3343120194
:1045100004359C0B04D19B00960F33439200023567
:10452000DC0B02D192185B4101351C0097186441E5
:104530000134464F7C66464C3C660E0CFFE7FFE7B5
:10454000FFE7C0463C6F6643360C7703BE4697B222
:104550007743C01B00D20139C01B00D201399FB282
:104560007743C91BC91B170C77437E04FF0B801BC5
:10457000B941CE086643360C0C2D33DBB644120B22
:104580001F053A431B0B97B27743C01B00D201397A
:104590009FB27743C91B170C77433E043F0C801B27
:1045A000B941860D8F023E43664329277F1BFE409B
:1045B0000C3D7746AF40BF1930BCA2B2ABB27243DC
:1045C0007343801A9941220C7243130C1204801A0F
:1045D000994102000B000137001BA941F9D2781E56
:1045E0000021F0BD0C277F1BFE4077467F0BAF40BC
:1045F000FF19E0E700245D1C07D0144F7D66396683
:10460000FFE7FFE7FFE7FFE73C6F95B29EB2654328
:104610006643401BB141150C1E0C654366433604CE
:104620002F0C3E432D04401BB141994204D202009D
:104630000B0020000021F0BD01D19042F7D3801A79
:10464000994101349942F2D3F6E70000000000D00E
:10465000FFFFFFFF48404140484018B41B4B5B68D8
:10466000FC46019308BD04DF9F53001018B4174B9C
:104670001B68FC46019308BD00DFA9530010944657
:10468000134A926F920809D2624618B40F4BDB6846
:10469000FC46019308BD0CDF615600100C4AF0B5D2
:1046A000146E556E576F166F6246FFF7EEFF084A9D
:1046B0001466556657671667F0BD18B4034B9B68C0
:1046C000FC46019308BD08DF05550010203300208B
:1046D000000000D0FFB550404240504059404B4090
:1046E000594000E0FFB5154F4C00640D03D0BC42AB
:1046F00004D10C0314D80020090D09055C00640DD9
:1047000003D0BC4204D11C030AD800221B0D1B0598
:1047100001264B4009D44B4003D58B4200D1824245
:10472000FFBD9942FCD19042FFBD0B43DB18034310
:104730001343F5D0C9434918FFBD0000FF0700002F
:1047400000B5FFF7CFFF01D0002000BD012000BD64
:1047500000B5FFF7C7FF804100BDC04600B5FFF7B9
:10476000C1FF01D9002000BD012000BD00B5FFF749
:10477000B1FF01D9002000BD012000BD00B5FFF749
:10478000A9FF804100BD012040054A00121804D84D
:104790005A00121801D800207047012070470020ED
:1047A000704700000021002805D17047C11748401C
:1047B000401AFAD0C90713B5064B1B6898470CBCC2
:1047C000441CA2401005120B0349091B090519439B
:1047D000114310BD203400201F04000010B54C0010
:1047E000620D8023D218DB00D21A5B057E2A10DD11
:1047F0009E3A13DACC170903490819435242D140B3
:10480000640001341532202A05DAD04008436043A1
:1048100010BD002010BD0846604310BDC80FC01871
:10482000013810BD18B4044B5B6AFC46019308BD07
:1048300024DF1158001000002033002018B4044B6E
:10484000DB6DFC46019308BD5CDF1D5900100000C4
:1048500020330020C94211D300B549004908002285
:1048600000F018F8002904D4002240428A41114681
:1048700000BD80210906002000BD000018B4044BD3
:10488000DB6EFC46019308BD6CDF1F580010000072
:104890002033002018B4044B9B6FFC46019308BDE5
:1048A00078DF3B58001000002033002018B4044B80
:1048B000DB6FFC46019308BD7CDFA95800100000A7
:1048C0002033002018B4044BDB6CFC46019308BD78
:1048D0004CDF555A001000002033002018B4044B60
:1048E0001B6DFC46019308BD50DFF15A001000001B
:1048F0002033002070B513231C78012C14D0012C18
:1049000014DC022C02DC1F4A1F4B9A641F48FFF77D
:1049100015FC1F4B186070BD99001A481A4A885040
:1049200001331F2BF8D9EAE70023FAE71948FFF70C
:104930000DFC05001848FFF709FC023803789B00BE
:104940007F2B19DD802229000F4801F07FFB022C0C
:10495000D7D1124B1A88B5231B029A4209D1104BAA
:104960001A88104B9A4204D10F4B1A880F4B9A4267
:10497000C7D00020FEF7F6FA0D4B0E4A32210E4842
:10498000FEF756FA65530010203300204C33000028
:1049900020340020534400005346000054380000E7
:1049A000D8380000494600009C38000059460000F5
:1049B000C88E0110788F0110288F011070B5040087
:1049C0000D001600012A0ED0D20F92195210FFF7D7
:1049D000F5FF02000B00FFF770FEF30703D522007E
:1049E0002B00FFF76AFE70BDF0B5D6464F4646462F
:1049F000C0B588B014001D000E0D7605760D974BDE
:104A00009846B044964B9B1B009001910F0D7F057B
:104A100014D0944FBE4211D0991900290ADD924852
:104A200081423ADD019BDB0FDB0700208F4A1A43EE
:104A3000110003E00020019BDB0FD907FFF74EFFB9
:104A40008B4A8C4BFFF71BFE00228B4B0090019191
:104A5000FFF794FE00280AD00022884B00980199A5
:104A6000FFF7FBFD00900191854B9846B04443460B
:104A7000002B1BD00022834B20002900FFF776FE7D
:104A800000281FD04346002B19DB0020774908B0CF
:104A9000E0BCBA46B146A846F0BD00201905009A10
:104AA000019B12184B4110001900C7E722002B0090
:104AB00000980199FFF701FE00F030FAE7E70020C7
:104AC0000021E4E70022704B20002900FFF746FE9A
:104AD000002808D04346002B02DB00200021D6E747
:104AE00000206249D3E72000290000F0C9F9060040
:104AF0000F0002000B0020002900FFF7AEFD02901E
:104B000003911A2200F094F900F0BAF904000D00A4
:104B100002000B00090D4905480D002913D0514929
:104B2000884210D01A3800280ADD4F49884200DC3C
:104B300084E0EB0FDB0700244C4A1A43150002E027
:104B40000024EB0FDD0722002B0002980399FFF7EA
:104B500084FD0690079130003900FFF73FFE814643
:104B6000030041464B439A464046FFF71FFE220092
:104B70002B0004900591FFF7A0FD06000F0000F048
:104B80007FF904000D00FFF729FE8046D044220083
:104B90002B0030003900FFF760FD04000D00069A7D
:104BA000079B04980599FFF788FD02000B00200081
:104BB0002900FFF75BFD049005914846FFF7F6FDDD
:104BC000009A019BFFF779FD04000D0000F058F9F1
:104BD00006000F00FFF702FE804432003B00200079
:104BE0002900FFF73AFD049A059BFFF73FFD0400FB
:104BF0000D00029A039B00980199FFF75EFD2200C9
:104C00002B00FFF733FD00F089F904000D000B0DB8
:104C10005B055A0D002B00D139E7124B9A4200D1A7
:104C200035E74244002A0EDD0F4B9A420FDDCB0FD1
:104C3000DB0700200D4A1A43110028E70024134D1A
:104C4000A4185D417FE70020CB0FD9071FE70020A4
:104C5000434619050019694119E7C04601FCFFFFE9
:104C6000FF030000FF070000FE0700000000F07FC8
:104C7000EF39FAFE422EE63F0000E03F0000F03F31
:104C800002FCFFFF0000B0400000B0C0000060FE6A
:104C9000F0B5D64600B582B001900E0000921D001E
:104CA00003000C00CA0F9246002955DA2A0D52055E
:104CB000520D584952183ED434218A1A3DD45439E1
:104CC000501825D41F318140012040429040009E61
:104CD000864330002E008E43310001432FD1342A09
:104CE0002FD0203951181CD42A00CA4001210A4073
:104CF000002A28D0180080263606A119009A2B0019
:104D0000FFF7C6FF8B19190002B080BCBA46F0BD90
:104D10002020801A012149420E00C64091403143B3
:104D2000D2E72021891A2800884001000098D0404D
:104D300002000A43DAE70022DAE70022D8E700227D
:104D4000D6E70122D4E7180080231B06E118009A59
:104D50002B00FFF79DFFD7E700982900FFF73EFDE6
:104D60000700019A310D4905480D002907D02A494D
:104D7000884213D033031B0B134358425841002879
:104D80000ED1002F43D03B002033402B2DD9009A69
:104D90002B0001983100FFF727FEB5E75046EEE7FC
:104DA000200D4005400D1B4B9C46604480231B0199
:104DB0009F4204DA194B9F4202DA184F00E0164F67
:104DC0007843174BC318002B09DD164A934209DCC0
:104DD00000260705002014498019794194E7002036
:104DE000002191E7002011498EE7002F05DB3A00F2
:104DF00001983100FFF7E2FD86E7019A33000020B9
:104E00000949FFF73CFC01900E007F42EFE70020CC
:104E1000054979E701FCFFFFFF07000000F8FFFFED
:104E2000FF030000FE0700000000F03F0000F07FDD
:104E300030B50B0D5B055C0D002B14D00D4B9C4267
:104E400011D01419002C09DD0B4B9C420CDDC90F4D
:104E5000C907002409480843050002E00024C90FDF
:104E6000CD072000290030BD0024150524184D4130
:104E7000F7E7C046FF070000FE0700000000F07FD4
:104E800070B50B0D5B055B0D224A944663445A1CBA
:104E900026DB5A1C2AD03422D21A002A1FDD3324E2
:104EA000E41A20235B42E51827D40126AE403300E4
:104EB0000125A5402A0012184B41202149426518BE
:104EC00021D40226AE4031000225A540280000254D
:104ED00044428D411600264030002B40190070BD21
:104EE0000022C90FCB0710001900F8E7CB0FDB0732
:104EF0000020094A1A431100F1E720252D1B012645
:104F0000EE403300D4E720252D1B0226EE40310071
:104F1000DAE7C04601FCFFFF0000F03F70B5050076
:104F20000C000A0D284B9A4247D00022274B28003C
:104F30002100FFF713FC002842D10022244B280057
:104F40002100FFF713FC002802D00020214939E09E
:104F500028002100FFF794FFFFF740FC0600FFF751
:104F600025FC02000B0028002100FFF776FB1A4AFF
:104F70001A4BFFF7A2FBFFF7A5FC04000D000B0D79
:104F80005B055A0D002B1DD0154B9A421AD0B21852
:104F9000002A09DD134B9A420ADDCB0FDB07002004
:104FA0000C4A1A4311000DE00020CB0FD90709E08D
:104FB000002031050019694104E00020002101E0D2
:104FC0000020002170BDC046FF0F00000000B0C0EF
:104FD0000000B0400000F07FEF39FAFE422EE63FBD
:104FE000FF070000FE070000F0B583B00500009049
:104FF0000C0001921F000022B44B28002100FFF793
:105000009FFB002841D13E0D73055D0D002B3CD068
:105010000022AF4B00982100FFF792FB002803D03D
:10502000AC4B9D4200D181E1220D5305590D002B5F
:1050300000D081E0FA0F002F3FDB3B0D5B055B0DDD
:10504000A5495B181CD43421CB1A19D454395818EB
:1050500021D41F318140012040429840019D854369
:1050600028003D008D432900014309D1342B22D073
:10507000202252429A1817D4D7403A0001231A40EE
:10508000002A00D155E1009D01E000258F4C280049
:10509000210003B0F0BD2020C01A012149420D00BB
:1050A000C54099402943D6E72022D21A9740019A59
:1050B000DA403A43E2E70122E2E73B0D5B055B0D94
:1050C000854A9B181BD43422D31A18D4543A981802
:1050D00020D41F328240012040429840019D8543E8
:1050E00028003D0095432A00024308D1342B21D0EB
:1050F000203A9A1817D43900D140012319400029C9
:1051000000D119E1E40FE40700227449214315009E
:105110000C00BCE72020C01A012252421500C540F5
:105120009A402A43D7E72022D21A97400199D940C2
:105130003943E2E70121E2E7664B9A422CD0684B03
:105140009A422FD0634B9E4200D1A9E0644B9E420D
:1051500000D1ABE03B0D5B055A0D002B00D1C5E043
:105160005D4BD21800D5C9E034239A1A002A00DC1E
:10517000C6E0543BD11800D59EE01F338B4001217F
:1051800049429140019A8A43390099430B001343E5
:1051900000D0B7E00133AAE0002F00DBCFE000250C
:1051A000002474E7FA0F002F3ADB3B0D5B055B0D23
:1051B00049495B181CD43421CB1A19D454395818D6
:1051C0001CD41F318140012040429840019C8443FF
:1051D00020003C008C432100014309D1342B1DD019
:1051E000202252429A1812D4D7403A0001231A4082
:1051F000002A00D1A6E000253A4C48E72020C01A3A
:10520000012149420C00C44099402143DBE72022A0
:10521000D21A9740019ADA403A43E7E70122E7E7DA
:105220003B0D5B055B0D2C4A9B1831D43422D31AFD
:1052300030D4543A99181AD41F328A400121494275
:1052400099400198884301003800904302000A43C6
:1052500022D1342B22D0203A9A1811D4D7400126DB
:105260003740002F71D00025802424060FE720212D
:10527000C91A012252421000C8409A400243DDE799
:105280002022D21A97403A00019FDF401743E6E7F9
:105290000027E6E70027E4E70027E2E70127E0E749
:1052A000114B994254DC00250024F0E60E4B994244
:1052B00051DC0025094CEAE62021891A01235B42D2
:1052C0001800C8409340034359E7C0460000F03F30
:1052D0000000F0BFFF07000001FCFFFF0000F07FAF
:1052E000FF0F00000000F0FFFE0300000123002B71
:1052F0000AD1002C11DA0025184CC8E60023F6E785
:105300000123F4E70023F2E7019A3B000098210013
:10531000FFF7BEFC05000C00B9E6019A3B000098BF
:105320002100FFF761FB05000C00B0E600250C4CE6
:10533000ADE600250024AAE60025084CA7E60025D6
:10534000064CA4E60025054CA1E6002500249EE6B7
:105350000025024C9BE60025002498E60000F07F23
:105360000000F03F07B56046002800D100BE01886C
:105370000A0A0230DF2AFAD1C9B2820804D30288AD
:1053800040880004104300E00068024A5050039037
:1053900007BD0000203300200FB403BC0CBCF0B5E7
:1053A0000124E407634000E0F0B50C0DCF0F661E4A
:1053B0003605891B640503D3C943404200D301313C
:1053C000640D03D0661CF60A07D0E41B00207F00A2
:1053D000791C89078912803C24031D0DDF0F6E1E86
:1053E00036059B1B6D0503D3DB43524200D30133CB
:1053F0006D0D03D06E1CF60A07D0ED1B00227F0056
:105400007B1C9B079B12803D2D032F1B661B58D4D2
:10541000A446202E46DA20371400BC401D00BD40B3
:10542000F24033412A4380185941CB0F05D0C9437C
:10543000C043002264425041514162464D0D28D183
:105440000D0D07D100281FD0241940414941013AD0
:105450000D0DF9D0640006D3013000D30131002CCA
:1054600001D140084000013A0BD4941CE40A04D155
:1054700012051144DB071944F0BDD907204B19432D
:1054800000E0D9070020F0BD0029DDD1002CDBD1E0
:10549000F0BD0132C6074008CD0728434908002E59
:1054A000E1D0D9E73C2E29DA203E40371400BC4039
:1054B00000D00124F24014431A00BB401C43D31710
:1054C000ACE7AC46202F08DA20360400B4400D00CB
:1054D000B540F84039412843A5E73C2F0CDA203F7E
:1054E00040360400B44000D00124F84004430800D2
:1054F000B1400C43C117EAE710001900002494E7FB
:105500000000F07FF0B50C0D661E3605891BE60A1B
:105510006405640D02D0651CED0A04D00020012151
:105520000905803C2403A4461C0D671E3F05DB1BB8
:10553000E70A6405640D02D0651CED0A04D0002260
:1055400001231B05803C24037740644497B484B254
:1055500096B27443070C7E43150C6F4380B26843C8
:10556000361802D3012000043F183004350C00190E
:105570007D41844688B29AB250430C0C62431F0CA2
:105580007C438EB27E43921902D301263604A419BD
:105590001604170C3618674101BC81B29AB2514308
:1055A000040C62431B0C5C4380B25843121802D3B4
:1055B0000120000424181004130C401863412D1816
:1055C0005E410020474106BC88B293B258430C0CA0
:1055D0006343120C544389B251435B1802D3012137
:1055E0000904641819041A0C091862416D1856410F
:1055F0000020474118BCF902720D1143F0026A0DF8
:105600001043ED020A0D03D16D1940414941013BA0
:10561000124E9B1B7600B3420ED26D0007D30130B1
:10562000002671416646354301D1400840001B0504
:10563000C918E4072144F0BD0BDA013306D101306B
:1056400004D101314F0D01D04908F2E7E1070020F4
:10565000F0BD013631050020EBE70000FF0300003C
:10566000F0B51C0D671E3F05DB1BE70A6405640DE2
:1056700002D0661CF60A04D0002201231B05803CE0
:105680002403D0252D060026F6432E661E096E66DD
:10569000CE0FF619B44649004F0D02D07E1CF60A13
:1056A00003D000200021403F3F033E1BB600B4441E
:1056B000013F7F05C91B49082E6F013676089C0201
:1056C000950D25437543ED137543AD1301356D10ED
:1056D000F603761B0CB4CC02450D2C43A2B2B3B238
:1056E0005A43270C7B43350C6F43A4B26C431B1900
:1056F00002D3012424043F191C041D0CA4187D416D
:1057000024196D41009A91B2ACB26143170C7C43ED
:105710002B0C5F4392B25A43A41802D30122120405
:10572000BF182204230C52187B41019C6C431B19A7
:10573000520ED9010A434401A01A81B2B2B25143B8
:1057400003145A43360C734387B27743D617D219E2
:1057500000277E4136049B191704160C7F185E4102
:105760007316ED18F301002680337541A90F06D199
:105770006400690AE8055B0A184309D22FE0042295
:10578000944480337541A90AA8059B0A184326D37F
:10579000404149412404009A019B0D005543641B7C
:1057A0004343E41A95B286B27543170C7E43030C4B
:1057B0005F4392B25A43B61802D301221204BF18B3
:1057C0003204330C52197B4152429C41002C02D4CA
:1057D0000022013051414008CA071043490802B075
:1057E0006246D7079210084BD218084B9A4203D250
:1057F00012058918C919F0BD0020002A01DC390002
:10580000F0BD01331905F5E7FD030000FE070000B8
:10581000002200B5203200F010F8080000BD002280
:1058200000B500F00CF8CA179A4200D100BDD84369
:105830000121C907414000BD00220B150AD410B553
:10584000944600F0A7F81414013400DA0021CB17B5
:10585000144C20470020002170476244343A0CD495
:105860000C2A07DA04009140904052422032D44082
:10587000214310BDD843D94310BD203207D40C4674
:105880009440524220321141D040204310BD0800C4
:10589000C917203203D452422032104110BD1800E3
:1058A000190010BD5B5800104A00520D144BD21A5B
:1058B00013DDFF2A1EDAD205CB0FDB071A43C30024
:1058C000400F0903490A084310435B0001D301D08C
:1058D000013070474308FBD2704702D0C80FC007A1
:1058E00070470A0312130132F8D1420F072AF5D18B
:1058F000012200E0FF22C80F00028018C005704797
:105900008003000000210A00002104E000210A00B9
:10591000C11704E00022002306E0C0460022CB1796
:1059200058405940C01A994130B5184CA21A002964
:1059300003D1010010D00020203A4C1512D104D21E
:10594000013A001849414C0DFAD3114CA24204D23D
:1059500012058918DB07C91830BDD243520D00204B
:105960000021F5E703D4013A00184941FBD50B3279
:105970004405C00A4D052843C90A640003D0002429
:1059800060416141E1E7E0D34408F8E732040000F8
:10599000FE0700000A0DCC0F531E1B05C91A520545
:1059A00003D3C943404200D30131520D03D0531CED
:1059B000DB0A07D0121B00206400611C89078912D2
:1059C000803A1203014BD21A70470000FF03000017
:1059D000023225D40C2A1CDA1125AD1A0B002B41FA
:1059E000083207350600EE40904091403143F0CC3C
:1059F00063431A1500235A41554356435743BF0288
:105A0000F412760576196741ED177F19801BB941AD
:105A100070470C220020C917490001310905DBE756
:105A20000902030E194300025342203208D40C002D
:105A300019419440D84020430022504151417047C1
:105A40000800C917203B2032F1D500200021002298
:105A500070470000F0B5FFF79DFF54A4FFF7B8FFB3
:105A6000002904DA204C214D00196941013A04B49F
:105A7000012752A6002201239B0730CEB446001B0B
:105A8000A9410BD47E4220361D003D411C00B4408C
:105A90001600FE40344362416B4101E00019694148
:105AA00066460137212FE8D185B29EB275430714AF
:105AB0007E43190C4F4384B24C43F117361900242E
:105AC000614109047F183404310C64197941A40F31
:105AD0008800204389178018594104BC52423E3245
